{
  "_format": "hh-sol-artifact-1",
  "contractName": "Token",
  "sourceName": "contracts/Token.sol",
  "abi": [
    {
      "inputs": [],
      "stateMutability": "nonpayable",
      "type": "constructor"
    },
    {
      "anonymous": false,
      "inputs": [
        {
          "indexed": true,
          "internalType": "address",
          "name": "owner",
          "type": "address"
        },
        {
          "indexed": true,
          "internalType": "address",
          "name": "spender",
          "type": "address"
        },
        {
          "indexed": false,
          "internalType": "uint256",
          "name": "value",
          "type": "uint256"
        }
      ],
      "name": "Approval",
      "type": "event"
    },
    {
      "anonymous": false,
      "inputs": [
        {
          "indexed": true,
          "internalType": "address",
          "name": "previousOwner",
          "type": "address"
        },
        {
          "indexed": true,
          "internalType": "address",
          "name": "newOwner",
          "type": "address"
        }
      ],
      "name": "OwnershipTransferred",
      "type": "event"
    },
    {
      "anonymous": false,
      "inputs": [
        {
          "indexed": true,
          "internalType": "address",
          "name": "sender",
          "type": "address"
        },
        {
          "indexed": true,
          "internalType": "address",
          "name": "recipient",
          "type": "address"
        },
        {
          "indexed": false,
          "internalType": "uint256",
          "name": "amount",
          "type": "uint256"
        },
        {
          "indexed": false,
          "internalType": "string",
          "name": "paymentProof",
          "type": "string"
        },
        {
          "indexed": false,
          "internalType": "uint256",
          "name": "timestamp",
          "type": "uint256"
        }
      ],
      "name": "Payment",
      "type": "event"
    },
    {
      "anonymous": false,
      "inputs": [
        {
          "indexed": true,
          "internalType": "address",
          "name": "from",
          "type": "address"
        },
        {
          "indexed": true,
          "internalType": "address",
          "name": "to",
          "type": "address"
        },
        {
          "indexed": false,
          "internalType": "uint256",
          "name": "value",
          "type": "uint256"
        }
      ],
      "name": "Transfer",
      "type": "event"
    },
    {
      "inputs": [
        {
          "internalType": "address",
          "name": "owner",
          "type": "address"
        },
        {
          "internalType": "address",
          "name": "spender",
          "type": "address"
        }
      ],
      "name": "allowance",
      "outputs": [
        {
          "internalType": "uint256",
          "name": "",
          "type": "uint256"
        }
      ],
      "stateMutability": "view",
      "type": "function"
    },
    {
      "inputs": [
        {
          "internalType": "address",
          "name": "spender",
          "type": "address"
        },
        {
          "internalType": "uint256",
          "name": "amount",
          "type": "uint256"
        }
      ],
      "name": "approve",
      "outputs": [
        {
          "internalType": "bool",
          "name": "",
          "type": "bool"
        }
      ],
      "stateMutability": "nonpayable",
      "type": "function"
    },
    {
      "inputs": [
        {
          "internalType": "address",
          "name": "account",
          "type": "address"
        }
      ],
      "name": "balanceOf",
      "outputs": [
        {
          "internalType": "uint256",
          "name": "",
          "type": "uint256"
        }
      ],
      "stateMutability": "view",
      "type": "function"
    },
    {
      "inputs": [
        {
          "internalType": "uint256",
          "name": "amount",
          "type": "uint256"
        }
      ],
      "name": "burn",
      "outputs": [],
      "stateMutability": "nonpayable",
      "type": "function"
    },
    {
      "inputs": [
        {
          "internalType": "address",
          "name": "account",
          "type": "address"
        },
        {
          "internalType": "uint256",
          "name": "amount",
          "type": "uint256"
        }
      ],
      "name": "burnFrom",
      "outputs": [],
      "stateMutability": "nonpayable",
      "type": "function"
    },
    {
      "inputs": [],
      "name": "decimals",
      "outputs": [
        {
          "internalType": "uint8",
          "name": "",
          "type": "uint8"
        }
      ],
      "stateMutability": "view",
      "type": "function"
    },
    {
      "inputs": [
        {
          "internalType": "address",
          "name": "spender",
          "type": "address"
        },
        {
          "internalType": "uint256",
          "name": "subtractedValue",
          "type": "uint256"
        }
      ],
      "name": "decreaseAllowance",
      "outputs": [
        {
          "internalType": "bool",
          "name": "",
          "type": "bool"
        }
      ],
      "stateMutability": "nonpayable",
      "type": "function"
    },
    {
      "inputs": [
        {
          "internalType": "address",
          "name": "spender",
          "type": "address"
        },
        {
          "internalType": "uint256",
          "name": "addedValue",
          "type": "uint256"
        }
      ],
      "name": "increaseAllowance",
      "outputs": [
        {
          "internalType": "bool",
          "name": "",
          "type": "bool"
        }
      ],
      "stateMutability": "nonpayable",
      "type": "function"
    },
    {
      "inputs": [
        {
          "internalType": "address",
          "name": "to",
          "type": "address"
        },
        {
          "internalType": "uint256",
          "name": "amount",
          "type": "uint256"
        }
      ],
      "name": "mint",
      "outputs": [],
      "stateMutability": "nonpayable",
      "type": "function"
    },
    {
      "inputs": [],
      "name": "name",
      "outputs": [
        {
          "internalType": "string",
          "name": "",
          "type": "string"
        }
      ],
      "stateMutability": "view",
      "type": "function"
    },
    {
      "inputs": [],
      "name": "owner",
      "outputs": [
        {
          "internalType": "address",
          "name": "",
          "type": "address"
        }
      ],
      "stateMutability": "view",
      "type": "function"
    },
    {
      "inputs": [
        {
          "internalType": "address",
          "name": "recipient",
          "type": "address"
        },
        {
          "internalType": "uint256",
          "name": "amount",
          "type": "uint256"
        },
        {
          "internalType": "string",
          "name": "paymentProof",
          "type": "string"
        }
      ],
      "name": "pay",
      "outputs": [
        {
          "internalType": "bool",
          "name": "",
          "type": "bool"
        }
      ],
      "stateMutability": "nonpayable",
      "type": "function"
    },
    {
      "inputs": [],
      "name": "renounceOwnership",
      "outputs": [],
      "stateMutability": "nonpayable",
      "type": "function"
    },
    {
      "inputs": [],
      "name": "symbol",
      "outputs": [
        {
          "internalType": "string",
          "name": "",
          "type": "string"
        }
      ],
      "stateMutability": "view",
      "type": "function"
    },
    {
      "inputs": [],
      "name": "totalSupply",
      "outputs": [
        {
          "internalType": "uint256",
          "name": "",
          "type": "uint256"
        }
      ],
      "stateMutability": "view",
      "type": "function"
    },
    {
      "inputs": [
        {
          "internalType": "address",
          "name": "recipient",
          "type": "address"
        },
        {
          "internalType": "uint256",
          "name": "amount",
          "type": "uint256"
        }
      ],
      "name": "transfer",
      "outputs": [
        {
          "internalType": "bool",
          "name": "",
          "type": "bool"
        }
      ],
      "stateMutability": "nonpayable",
      "type": "function"
    },
    {
      "inputs": [
        {
          "internalType": "address",
          "name": "from",
          "type": "address"
        },
        {
          "internalType": "address",
          "name": "to",
          "type": "address"
        },
        {
          "internalType": "uint256",
          "name": "amount",
          "type": "uint256"
        }
      ],
      "name": "transferFrom",
      "outputs": [
        {
          "internalType": "bool",
          "name": "",
          "type": "bool"
        }
      ],
      "stateMutability": "nonpayable",
      "type": "function"
    },
    {
      "inputs": [
        {
          "internalType": "address",
          "name": "newOwner",
          "type": "address"
        }
      ],
      "name": "transferOwnership",
      "outputs": [],
      "stateMutability": "nonpayable",
      "type": "function"
    },
    {
      "inputs": [
        {
          "internalType": "uint256",
          "name": "amount",
          "type": "uint256"
        }
      ],
      "name": "withdraw",
      "outputs": [
        {
          "internalType": "bool",
          "name": "",
          "type": "bool"
        }
      ],
      "stateMutability": "nonpayable",
      "type": "function"
    }
  ],
  "bytecode": "0x60806040523480156200001157600080fd5b506040518060400160405280600581526020017f546f6b656e0000000000000000000000000000000000000000000000000000008152506040518060400160405280600381526020017f42524c000000000000000000000000000000000000000000000000000000000081525081600390816200008f9190620005ba565b508060049081620000a19190620005ba565b505050620000c4620000b8620000fb60201b60201c565b6200010360201b60201c565b620000f5306012600a620000d9919062000831565b6207a120620000e9919062000882565b620001c960201b60201c565b620009b9565b600033905090565b6000600560009054906101000a900473ffffffffffffffffffffffffffffffffffffffff16905081600560006101000a81548173ffffffffffffffffffffffffffffffffffffffff021916908373ffffffffffffffffffffffffffffffffffffffff1602179055508173ffffffffffffffffffffffffffffffffffffffff168173ffffffffffffffffffffffffffffffffffffffff167f8be0079c531659141344cd1fd0a4f28419497f9722a3daafe3b4186f6b6457e060405160405180910390a35050565b600073ffffffffffffffffffffffffffffffffffffffff168273ffffffffffffffffffffffffffffffffffffffff16036200023b576040517f08c379a000000000000000000000000000000000000000000000000000000000815260040162000232906200092e565b60405180910390fd5b6200024f600083836200033660201b60201c565b806002600082825462000263919062000950565b92505081905550806000808473ffffffffffffffffffffffffffffffffffffffff1673ffffffffffffffffffffffffffffffffffffffff168152602001908152602001600020600082825401925050819055508173ffffffffffffffffffffffffffffffffffffffff16600073ffffffffffffffffffffffffffffffffffffffff167fddf252ad1be2c89b69c2b068fc378daa952ba7f163c4a11628f55a4df523b3ef836040516200031691906200099c565b60405180910390a362000332600083836200033b60201b60201c565b5050565b505050565b505050565b600081519050919050565b7f4e487b7100000000000000000000000000000000000000000000000000000000600052604160045260246000fd5b7f4e487b7100000000000000000000000000000000000000000000000000000000600052602260045260246000fd5b60006002820490506001821680620003c257607f821691505b602082108103620003d857620003d76200037a565b5b50919050565b60008190508160005260206000209050919050565b60006020601f8301049050919050565b600082821b905092915050565b600060088302620004427fffffffffffffffffffffffffffffffffffffffffffffffffffffffffffffffff8262000403565b6200044e868362000403565b95508019841693508086168417925050509392505050565b6000819050919050565b6000819050919050565b60006200049b620004956200048f8462000466565b62000470565b62000466565b9050919050565b6000819050919050565b620004b7836200047a565b620004cf620004c682620004a2565b84845462000410565b825550505050565b600090565b620004e6620004d7565b620004f3818484620004ac565b505050565b5b818110156200051b576200050f600082620004dc565b600181019050620004f9565b5050565b601f8211156200056a576200053481620003de565b6200053f84620003f3565b810160208510156200054f578190505b620005676200055e85620003f3565b830182620004f8565b50505b505050565b600082821c905092915050565b60006200058f600019846008026200056f565b1980831691505092915050565b6000620005aa83836200057c565b9150826002028217905092915050565b620005c58262000340565b67ffffffffffffffff811115620005e157620005e06200034b565b5b620005ed8254620003a9565b620005fa8282856200051f565b600060209050601f8311600181146200063257600084156200061d578287015190505b6200062985826200059c565b86555062000699565b601f1984166200064286620003de565b60005b828110156200066c5784890151825560018201915060208501945060208101905062000645565b868310156200068c578489015162000688601f8916826200057c565b8355505b6001600288020188555050505b505050505050565b7f4e487b7100000000000000000000000000000000000000000000000000000000600052601160045260246000fd5b60008160011c9050919050565b6000808291508390505b60018511156200072f57808604811115620007075762000706620006a1565b5b6001851615620007175780820291505b80810290506200072785620006d0565b9450620006e7565b94509492505050565b6000826200074a57600190506200081d565b816200075a57600090506200081d565b81600181146200077357600281146200077e57620007b4565b60019150506200081d565b60ff841115620007935762000792620006a1565b5b8360020a915084821115620007ad57620007ac620006a1565b5b506200081d565b5060208310610133831016604e8410600b8410161715620007ee5782820a905083811115620007e857620007e7620006a1565b5b6200081d565b620007fd8484846001620006dd565b92509050818404811115620008175762000816620006a1565b5b81810290505b9392505050565b600060ff82169050919050565b60006200083e8262000466565b91506200084b8362000824565b92506200087a7fffffffffffffffffffffffffffffffffffffffffffffffffffffffffffffffff848462000738565b905092915050565b60006200088f8262000466565b91506200089c8362000466565b9250828202620008ac8162000466565b91508282048414831517620008c657620008c5620006a1565b5b5092915050565b600082825260208201905092915050565b7f45524332303a206d696e7420746f20746865207a65726f206164647265737300600082015250565b600062000916601f83620008cd565b91506200092382620008de565b602082019050919050565b60006020820190508181036000830152620009498162000907565b9050919050565b60006200095d8262000466565b91506200096a8362000466565b9250828201905080821115620009855762000984620006a1565b5b92915050565b620009968162000466565b82525050565b6000602082019050620009b360008301846200098b565b92915050565b6122c980620009c96000396000f3fe608060405234801561001057600080fd5b50600436106101215760003560e01c80634a4bdb30116100ad57806395d89b411161007157806395d89b411461031c578063a457c2d71461033a578063a9059cbb1461036a578063dd62ed3e1461039a578063f2fde38b146103ca57610121565b80634a4bdb301461027857806370a08231146102a8578063715018a6146102d857806379cc6790146102e25780638da5cb5b146102fe57610121565b80632e1a7d4d116100f45780632e1a7d4d146101c2578063313ce567146101f2578063395093511461021057806340c10f191461024057806342966c681461025c57610121565b806306fdde0314610126578063095ea7b31461014457806318160ddd1461017457806323b872dd14610192575b600080fd5b61012e6103e6565b60405161013b91906113cc565b60405180910390f35b61015e60048036038101906101599190611496565b610478565b60405161016b91906114f1565b60405180910390f35b61017c61049b565b604051610189919061151b565b60405180910390f35b6101ac60048036038101906101a79190611536565b6104a5565b6040516101b991906114f1565b60405180910390f35b6101dc60048036038101906101d79190611589565b6104d4565b6040516101e991906114f1565b60405180910390f35b6101fa610534565b60405161020791906115d2565b60405180910390f35b61022a60048036038101906102259190611496565b61053d565b60405161023791906114f1565b60405180910390f35b61025a60048036038101906102559190611496565b610574565b005b61027660048036038101906102719190611589565b6105fd565b005b610292600480360381019061028d9190611722565b610611565b60405161029f91906114f1565b60405180910390f35b6102c260048036038101906102bd9190611791565b610721565b6040516102cf919061151b565b60405180910390f35b6102e0610769565b005b6102fc60048036038101906102f79190611496565b61077d565b005b61030661079d565b60405161031391906117cd565b60405180910390f35b6103246107c7565b60405161033191906113cc565b60405180910390f35b610354600480360381019061034f9190611496565b610859565b60405161036191906114f1565b60405180910390f35b610384600480360381019061037f9190611496565b6108d0565b60405161039191906114f1565b60405180910390f35b6103b460048036038101906103af91906117e8565b6108ee565b6040516103c1919061151b565b60405180910390f35b6103e460048036038101906103df9190611791565b610975565b005b6060600380546103f590611857565b80601f016020809104026020016040519081016040528092919081815260200182805461042190611857565b801561046e5780601f106104435761010080835404028352916020019161046e565b820191906000526020600020905b81548152906001019060200180831161045157829003601f168201915b5050505050905090565b6000806104836109f8565b9050610490818585610a00565b600191505092915050565b6000600254905090565b6000806104b06109f8565b90506104bd858285610bc9565b6104c8858585610c55565b60019150509392505050565b6000816104e033610721565b1015610521576040517f08c379a0000000000000000000000000000000000000000000000000000000008152600401610518906118d4565b60405180910390fd5b61052b3383610ecb565b60019050919050565b60006012905090565b6000806105486109f8565b905061056981858561055a85896108ee565b6105649190611923565b610a00565b600191505092915050565b61057c611098565b601260ff16600a61058d9190611a8a565b620f424061059b9190611ad5565b816105a461049b565b6105ae9190611923565b11156105ef576040517f08c379a00000000000000000000000000000000000000000000000000000000081526004016105e690611b63565b60405180910390fd5b6105f98282611116565b5050565b61060e6106086109f8565b82610ecb565b50565b60008261061d33610721565b101561065e576040517f08c379a0000000000000000000000000000000000000000000000000000000008152600401610655906118d4565b60405180910390fd5b61066884846108d0565b6106a7576040517f08c379a000000000000000000000000000000000000000000000000000000000815260040161069e90611bcf565b60405180910390fd5b60004290508473ffffffffffffffffffffffffffffffffffffffff163373ffffffffffffffffffffffffffffffffffffffff167fef3f1743a5a5c7ca1d67e94acf998909d2c302490f63d97a7a836ce1454c8f0686868560405161070d93929190611bef565b60405180910390a360019150509392505050565b60008060008373ffffffffffffffffffffffffffffffffffffffff1673ffffffffffffffffffffffffffffffffffffffff168152602001908152602001600020549050919050565b610771611098565b61077b600061126c565b565b61078f826107896109f8565b83610bc9565b6107998282610ecb565b5050565b6000600560009054906101000a900473ffffffffffffffffffffffffffffffffffffffff16905090565b6060600480546107d690611857565b80601f016020809104026020016040519081016040528092919081815260200182805461080290611857565b801561084f5780601f106108245761010080835404028352916020019161084f565b820191906000526020600020905b81548152906001019060200180831161083257829003601f168201915b5050505050905090565b6000806108646109f8565b9050600061087282866108ee565b9050838110156108b7576040517f08c379a00000000000000000000000000000000000000000000000000000000081526004016108ae90611c9f565b60405180910390fd5b6108c48286868403610a00565b60019250505092915050565b60006108e46108dd6109f8565b8484610c55565b6001905092915050565b6000600660008473ffffffffffffffffffffffffffffffffffffffff1673ffffffffffffffffffffffffffffffffffffffff16815260200190815260200160002060008373ffffffffffffffffffffffffffffffffffffffff1673ffffffffffffffffffffffffffffffffffffffff16815260200190815260200160002054905092915050565b61097d611098565b600073ffffffffffffffffffffffffffffffffffffffff168173ffffffffffffffffffffffffffffffffffffffff16036109ec576040517f08c379a00000000000000000000000000000000000000000000000000000000081526004016109e390611d31565b60405180910390fd5b6109f58161126c565b50565b600033905090565b600073ffffffffffffffffffffffffffffffffffffffff168373ffffffffffffffffffffffffffffffffffffffff1603610a6f576040517f08c379a0000000000000000000000000000000000000000000000000000000008152600401610a6690611dc3565b60405180910390fd5b600073ffffffffffffffffffffffffffffffffffffffff168273ffffffffffffffffffffffffffffffffffffffff1603610ade576040517f08c379a0000000000000000000000000000000000000000000000000000000008152600401610ad590611e55565b60405180910390fd5b80600160008573ffffffffffffffffffffffffffffffffffffffff1673ffffffffffffffffffffffffffffffffffffffff16815260200190815260200160002060008473ffffffffffffffffffffffffffffffffffffffff1673ffffffffffffffffffffffffffffffffffffffff168152602001908152602001600020819055508173ffffffffffffffffffffffffffffffffffffffff168373ffffffffffffffffffffffffffffffffffffffff167f8c5be1e5ebec7d5bd14f71427d1e84f3dd0314c0f7b2291e5b200ac8c7c3b92583604051610bbc919061151b565b60405180910390a3505050565b6000610bd584846108ee565b90507fffffffffffffffffffffffffffffffffffffffffffffffffffffffffffffffff8114610c4f5781811015610c41576040517f08c379a0000000000000000000000000000000000000000000000000000000008152600401610c3890611ec1565b60405180910390fd5b610c4e8484848403610a00565b5b50505050565b600073ffffffffffffffffffffffffffffffffffffffff168373ffffffffffffffffffffffffffffffffffffffff1603610cc4576040517f08c379a0000000000000000000000000000000000000000000000000000000008152600401610cbb90611f53565b60405180910390fd5b600073ffffffffffffffffffffffffffffffffffffffff168273ffffffffffffffffffffffffffffffffffffffff1603610d33576040517f08c379a0000000000000000000000000000000000000000000000000000000008152600401610d2a90611fe5565b60405180910390fd5b610d3e838383611332565b60008060008573ffffffffffffffffffffffffffffffffffffffff1673ffffffffffffffffffffffffffffffffffffffff16815260200190815260200160002054905081811015610dc4576040517f08c379a0000000000000000000000000000000000000000000000000000000008152600401610dbb90612077565b60405180910390fd5b8181036000808673ffffffffffffffffffffffffffffffffffffffff1673ffffffffffffffffffffffffffffffffffffffff16815260200190815260200160002081905550816000808573ffffffffffffffffffffffffffffffffffffffff1673ffffffffffffffffffffffffffffffffffffffff168152602001908152602001600020600082825401925050819055508273ffffffffffffffffffffffffffffffffffffffff168473ffffffffffffffffffffffffffffffffffffffff167fddf252ad1be2c89b69c2b068fc378daa952ba7f163c4a11628f55a4df523b3ef84604051610eb2919061151b565b60405180910390a3610ec5848484611337565b50505050565b600073ffffffffffffffffffffffffffffffffffffffff168273ffffffffffffffffffffffffffffffffffffffff1603610f3a576040517f08c379a0000000000000000000000000000000000000000000000000000000008152600401610f3190612109565b60405180910390fd5b610f4682600083611332565b60008060008473ffffffffffffffffffffffffffffffffffffffff1673ffffffffffffffffffffffffffffffffffffffff16815260200190815260200160002054905081811015610fcc576040517f08c379a0000000000000000000000000000000000000000000000000000000008152600401610fc39061219b565b60405180910390fd5b8181036000808573ffffffffffffffffffffffffffffffffffffffff1673ffffffffffffffffffffffffffffffffffffffff1681526020019081526020016000208190555081600260008282540392505081905550600073ffffffffffffffffffffffffffffffffffffffff168373ffffffffffffffffffffffffffffffffffffffff167fddf252ad1be2c89b69c2b068fc378daa952ba7f163c4a11628f55a4df523b3ef8460405161107f919061151b565b60405180910390a361109383600084611337565b505050565b6110a06109f8565b73ffffffffffffffffffffffffffffffffffffffff166110be61079d565b73ffffffffffffffffffffffffffffffffffffffff1614611114576040517f08c379a000000000000000000000000000000000000000000000000000000000815260040161110b90612207565b60405180910390fd5b565b600073ffffffffffffffffffffffffffffffffffffffff168273ffffffffffffffffffffffffffffffffffffffff1603611185576040517f08c379a000000000000000000000000000000000000000000000000000000000815260040161117c90612273565b60405180910390fd5b61119160008383611332565b80600260008282546111a39190611923565b92505081905550806000808473ffffffffffffffffffffffffffffffffffffffff1673ffffffffffffffffffffffffffffffffffffffff168152602001908152602001600020600082825401925050819055508173ffffffffffffffffffffffffffffffffffffffff16600073ffffffffffffffffffffffffffffffffffffffff167fddf252ad1be2c89b69c2b068fc378daa952ba7f163c4a11628f55a4df523b3ef83604051611254919061151b565b60405180910390a361126860008383611337565b5050565b6000600560009054906101000a900473ffffffffffffffffffffffffffffffffffffffff16905081600560006101000a81548173ffffffffffffffffffffffffffffffffffffffff021916908373ffffffffffffffffffffffffffffffffffffffff1602179055508173ffffffffffffffffffffffffffffffffffffffff168173ffffffffffffffffffffffffffffffffffffffff167f8be0079c531659141344cd1fd0a4f28419497f9722a3daafe3b4186f6b6457e060405160405180910390a35050565b505050565b505050565b600081519050919050565b600082825260208201905092915050565b60005b8381101561137657808201518184015260208101905061135b565b60008484015250505050565b6000601f19601f8301169050919050565b600061139e8261133c565b6113a88185611347565b93506113b8818560208601611358565b6113c181611382565b840191505092915050565b600060208201905081810360008301526113e68184611393565b905092915050565b6000604051905090565b600080fd5b600080fd5b600073ffffffffffffffffffffffffffffffffffffffff82169050919050565b600061142d82611402565b9050919050565b61143d81611422565b811461144857600080fd5b50565b60008135905061145a81611434565b92915050565b6000819050919050565b61147381611460565b811461147e57600080fd5b50565b6000813590506114908161146a565b92915050565b600080604083850312156114ad576114ac6113f8565b5b60006114bb8582860161144b565b92505060206114cc85828601611481565b9150509250929050565b60008115159050919050565b6114eb816114d6565b82525050565b600060208201905061150660008301846114e2565b92915050565b61151581611460565b82525050565b6000602082019050611530600083018461150c565b92915050565b60008060006060848603121561154f5761154e6113f8565b5b600061155d8682870161144b565b935050602061156e8682870161144b565b925050604061157f86828701611481565b9150509250925092565b60006020828403121561159f5761159e6113f8565b5b60006115ad84828501611481565b91505092915050565b600060ff82169050919050565b6115cc816115b6565b82525050565b60006020820190506115e760008301846115c3565b92915050565b600080fd5b600080fd5b7f4e487b7100000000000000000000000000000000000000000000000000000000600052604160045260246000fd5b61162f82611382565b810181811067ffffffffffffffff8211171561164e5761164d6115f7565b5b80604052505050565b60006116616113ee565b905061166d8282611626565b919050565b600067ffffffffffffffff82111561168d5761168c6115f7565b5b61169682611382565b9050602081019050919050565b82818337600083830152505050565b60006116c56116c084611672565b611657565b9050828152602081018484840111156116e1576116e06115f2565b5b6116ec8482856116a3565b509392505050565b600082601f830112611709576117086115ed565b5b81356117198482602086016116b2565b91505092915050565b60008060006060848603121561173b5761173a6113f8565b5b60006117498682870161144b565b935050602061175a86828701611481565b925050604084013567ffffffffffffffff81111561177b5761177a6113fd565b5b611787868287016116f4565b9150509250925092565b6000602082840312156117a7576117a66113f8565b5b60006117b58482850161144b565b91505092915050565b6117c781611422565b82525050565b60006020820190506117e260008301846117be565b92915050565b600080604083850312156117ff576117fe6113f8565b5b600061180d8582860161144b565b925050602061181e8582860161144b565b9150509250929050565b7f4e487b7100000000000000000000000000000000000000000000000000000000600052602260045260246000fd5b6000600282049050600182168061186f57607f821691505b60208210810361188257611881611828565b5b50919050565b7f496e73756666696369656e742062616c616e6365000000000000000000000000600082015250565b60006118be601483611347565b91506118c982611888565b602082019050919050565b600060208201905081810360008301526118ed816118b1565b9050919050565b7f4e487b7100000000000000000000000000000000000000000000000000000000600052601160045260246000fd5b600061192e82611460565b915061193983611460565b9250828201905080821115611951576119506118f4565b5b92915050565b60008160011c9050919050565b6000808291508390505b60018511156119ae5780860481111561198a576119896118f4565b5b60018516156119995780820291505b80810290506119a785611957565b945061196e565b94509492505050565b6000826119c75760019050611a83565b816119d55760009050611a83565b81600181146119eb57600281146119f557611a24565b6001915050611a83565b60ff841115611a0757611a066118f4565b5b8360020a915084821115611a1e57611a1d6118f4565b5b50611a83565b5060208310610133831016604e8410600b8410161715611a595782820a905083811115611a5457611a536118f4565b5b611a83565b611a668484846001611964565b92509050818404811115611a7d57611a7c6118f4565b5b81810290505b9392505050565b6000611a9582611460565b9150611aa083611460565b9250611acd7fffffffffffffffffffffffffffffffffffffffffffffffffffffffffffffffff84846119b7565b905092915050565b6000611ae082611460565b9150611aeb83611460565b9250828202611af981611460565b91508282048414831517611b1057611b0f6118f4565b5b5092915050565b7f546f74616c20737570706c79206c696d69742065786365656465640000000000600082015250565b6000611b4d601b83611347565b9150611b5882611b17565b602082019050919050565b60006020820190508181036000830152611b7c81611b40565b9050919050565b7f5472616e73666572206661696c65640000000000000000000000000000000000600082015250565b6000611bb9600f83611347565b9150611bc482611b83565b602082019050919050565b60006020820190508181036000830152611be881611bac565b9050919050565b6000606082019050611c04600083018661150c565b8181036020830152611c168185611393565b9050611c25604083018461150c565b949350505050565b7f45524332303a2064656372656173656420616c6c6f77616e63652062656c6f7760008201527f207a65726f000000000000000000000000000000000000000000000000000000602082015250565b6000611c89602583611347565b9150611c9482611c2d565b604082019050919050565b60006020820190508181036000830152611cb881611c7c565b9050919050565b7f4f776e61626c653a206e6577206f776e657220697320746865207a65726f206160008201527f6464726573730000000000000000000000000000000000000000000000000000602082015250565b6000611d1b602683611347565b9150611d2682611cbf565b604082019050919050565b60006020820190508181036000830152611d4a81611d0e565b9050919050565b7f45524332303a20617070726f76652066726f6d20746865207a65726f2061646460008201527f7265737300000000000000000000000000000000000000000000000000000000602082015250565b6000611dad602483611347565b9150611db882611d51565b604082019050919050565b60006020820190508181036000830152611ddc81611da0565b9050919050565b7f45524332303a20617070726f766520746f20746865207a65726f20616464726560008201527f7373000000000000000000000000000000000000000000000000000000000000602082015250565b6000611e3f602283611347565b9150611e4a82611de3565b604082019050919050565b60006020820190508181036000830152611e6e81611e32565b9050919050565b7f45524332303a20696e73756666696369656e7420616c6c6f77616e6365000000600082015250565b6000611eab601d83611347565b9150611eb682611e75565b602082019050919050565b60006020820190508181036000830152611eda81611e9e565b9050919050565b7f45524332303a207472616e736665722066726f6d20746865207a65726f20616460008201527f6472657373000000000000000000000000000000000000000000000000000000602082015250565b6000611f3d602583611347565b9150611f4882611ee1565b604082019050919050565b60006020820190508181036000830152611f6c81611f30565b9050919050565b7f45524332303a207472616e7366657220746f20746865207a65726f206164647260008201527f6573730000000000000000000000000000000000000000000000000000000000602082015250565b6000611fcf602383611347565b9150611fda82611f73565b604082019050919050565b60006020820190508181036000830152611ffe81611fc2565b9050919050565b7f45524332303a207472616e7366657220616d6f756e742065786365656473206260008201527f616c616e63650000000000000000000000000000000000000000000000000000602082015250565b6000612061602683611347565b915061206c82612005565b604082019050919050565b6000602082019050818103600083015261209081612054565b9050919050565b7f45524332303a206275726e2066726f6d20746865207a65726f2061646472657360008201527f7300000000000000000000000000000000000000000000000000000000000000602082015250565b60006120f3602183611347565b91506120fe82612097565b604082019050919050565b60006020820190508181036000830152612122816120e6565b9050919050565b7f45524332303a206275726e20616d6f756e7420657863656564732062616c616e60008201527f6365000000000000000000000000000000000000000000000000000000000000602082015250565b6000612185602283611347565b915061219082612129565b604082019050919050565b600060208201905081810360008301526121b481612178565b9050919050565b7f4f776e61626c653a2063616c6c6572206973206e6f7420746865206f776e6572600082015250565b60006121f1602083611347565b91506121fc826121bb565b602082019050919050565b60006020820190508181036000830152612220816121e4565b9050919050565b7f45524332303a206d696e7420746f20746865207a65726f206164647265737300600082015250565b600061225d601f83611347565b915061226882612227565b602082019050919050565b6000602082019050818103600083015261228c81612250565b905091905056fea264697066735822122021fd00cf6522407bff035fd8b145daa974ca281a99007667c6768e9f4ffc014d64736f6c63430008120033",
  "linkReferences": {},
  "deployedLinkReferences": {}
}