{
  "_format": "hh-sol-artifact-1",
  "contractName": "Token",
  "sourceName": "contracts/Token.sol",
  "abi": [
    {
      "inputs": [],
      "stateMutability": "nonpayable",
      "type": "constructor"
    },
    {
      "anonymous": false,
      "inputs": [
        {
          "indexed": true,
          "internalType": "address",
          "name": "owner",
          "type": "address"
        },
        {
          "indexed": true,
          "internalType": "address",
          "name": "spender",
          "type": "address"
        },
        {
          "indexed": false,
          "internalType": "uint256",
          "name": "value",
          "type": "uint256"
        }
      ],
      "name": "Approval",
      "type": "event"
    },
    {
      "anonymous": false,
      "inputs": [
        {
          "indexed": true,
          "internalType": "address",
          "name": "previousOwner",
          "type": "address"
        },
        {
          "indexed": true,
          "internalType": "address",
          "name": "newOwner",
          "type": "address"
        }
      ],
      "name": "OwnershipTransferred",
      "type": "event"
    },
    {
      "anonymous": false,
      "inputs": [
        {
          "indexed": true,
          "internalType": "address",
          "name": "sender",
          "type": "address"
        },
        {
          "indexed": true,
          "internalType": "address",
          "name": "recipient",
          "type": "address"
        },
        {
          "indexed": false,
          "internalType": "uint256",
          "name": "amount",
          "type": "uint256"
        },
        {
          "indexed": false,
          "internalType": "string",
          "name": "paymentProof",
          "type": "string"
        },
        {
          "indexed": false,
          "internalType": "uint256",
          "name": "timestamp",
          "type": "uint256"
        }
      ],
      "name": "Payment",
      "type": "event"
    },
    {
      "anonymous": false,
      "inputs": [
        {
          "indexed": true,
          "internalType": "address",
          "name": "from",
          "type": "address"
        },
        {
          "indexed": true,
          "internalType": "address",
          "name": "to",
          "type": "address"
        },
        {
          "indexed": false,
          "internalType": "uint256",
          "name": "value",
          "type": "uint256"
        }
      ],
      "name": "Transfer",
      "type": "event"
    },
    {
      "inputs": [
        {
          "internalType": "address",
          "name": "owner",
          "type": "address"
        },
        {
          "internalType": "address",
          "name": "spender",
          "type": "address"
        }
      ],
      "name": "allowance",
      "outputs": [
        {
          "internalType": "uint256",
          "name": "",
          "type": "uint256"
        }
      ],
      "stateMutability": "view",
      "type": "function"
    },
    {
      "inputs": [
        {
          "internalType": "address",
          "name": "spender",
          "type": "address"
        },
        {
          "internalType": "uint256",
          "name": "amount",
          "type": "uint256"
        }
      ],
      "name": "approve",
      "outputs": [
        {
          "internalType": "bool",
          "name": "",
          "type": "bool"
        }
      ],
      "stateMutability": "nonpayable",
      "type": "function"
    },
    {
      "inputs": [
        {
          "internalType": "address",
          "name": "account",
          "type": "address"
        }
      ],
      "name": "balanceOf",
      "outputs": [
        {
          "internalType": "uint256",
          "name": "",
          "type": "uint256"
        }
      ],
      "stateMutability": "view",
      "type": "function"
    },
    {
      "inputs": [
        {
          "internalType": "uint256",
          "name": "amount",
          "type": "uint256"
        }
      ],
      "name": "burn",
      "outputs": [],
      "stateMutability": "nonpayable",
      "type": "function"
    },
    {
      "inputs": [
        {
          "internalType": "address",
          "name": "account",
          "type": "address"
        },
        {
          "internalType": "uint256",
          "name": "amount",
          "type": "uint256"
        }
      ],
      "name": "burnFrom",
      "outputs": [],
      "stateMutability": "nonpayable",
      "type": "function"
    },
    {
      "inputs": [],
      "name": "decimals",
      "outputs": [
        {
          "internalType": "uint8",
          "name": "",
          "type": "uint8"
        }
      ],
      "stateMutability": "view",
      "type": "function"
    },
    {
      "inputs": [
        {
          "internalType": "address",
          "name": "spender",
          "type": "address"
        },
        {
          "internalType": "uint256",
          "name": "subtractedValue",
          "type": "uint256"
        }
      ],
      "name": "decreaseAllowance",
      "outputs": [
        {
          "internalType": "bool",
          "name": "",
          "type": "bool"
        }
      ],
      "stateMutability": "nonpayable",
      "type": "function"
    },
    {
      "inputs": [
        {
          "internalType": "address",
          "name": "spender",
          "type": "address"
        },
        {
          "internalType": "uint256",
          "name": "addedValue",
          "type": "uint256"
        }
      ],
      "name": "increaseAllowance",
      "outputs": [
        {
          "internalType": "bool",
          "name": "",
          "type": "bool"
        }
      ],
      "stateMutability": "nonpayable",
      "type": "function"
    },
    {
      "inputs": [
        {
          "internalType": "address",
          "name": "to",
          "type": "address"
        },
        {
          "internalType": "uint256",
          "name": "amount",
          "type": "uint256"
        }
      ],
      "name": "mint",
      "outputs": [],
      "stateMutability": "nonpayable",
      "type": "function"
    },
    {
      "inputs": [],
      "name": "name",
      "outputs": [
        {
          "internalType": "string",
          "name": "",
          "type": "string"
        }
      ],
      "stateMutability": "view",
      "type": "function"
    },
    {
      "inputs": [],
      "name": "owner",
      "outputs": [
        {
          "internalType": "address",
          "name": "",
          "type": "address"
        }
      ],
      "stateMutability": "view",
      "type": "function"
    },
    {
      "inputs": [
        {
          "internalType": "address",
          "name": "recipient",
          "type": "address"
        },
        {
          "internalType": "uint256",
          "name": "amount",
          "type": "uint256"
        },
        {
          "internalType": "string",
          "name": "paymentProof",
          "type": "string"
        }
      ],
      "name": "pay",
      "outputs": [
        {
          "internalType": "bool",
          "name": "",
          "type": "bool"
        }
      ],
      "stateMutability": "nonpayable",
      "type": "function"
    },
    {
      "inputs": [],
      "name": "renounceOwnership",
      "outputs": [],
      "stateMutability": "nonpayable",
      "type": "function"
    },
    {
      "inputs": [
        {
          "internalType": "string",
          "name": "_tokenImage",
          "type": "string"
        }
      ],
      "name": "setTokenImage",
      "outputs": [],
      "stateMutability": "nonpayable",
      "type": "function"
    },
    {
      "inputs": [],
      "name": "symbol",
      "outputs": [
        {
          "internalType": "string",
          "name": "",
          "type": "string"
        }
      ],
      "stateMutability": "view",
      "type": "function"
    },
    {
      "inputs": [],
      "name": "tokenImage",
      "outputs": [
        {
          "internalType": "string",
          "name": "",
          "type": "string"
        }
      ],
      "stateMutability": "view",
      "type": "function"
    },
    {
      "inputs": [],
      "name": "totalSupply",
      "outputs": [
        {
          "internalType": "uint256",
          "name": "",
          "type": "uint256"
        }
      ],
      "stateMutability": "view",
      "type": "function"
    },
    {
      "inputs": [
        {
          "internalType": "address",
          "name": "recipient",
          "type": "address"
        },
        {
          "internalType": "uint256",
          "name": "amount",
          "type": "uint256"
        }
      ],
      "name": "transfer",
      "outputs": [
        {
          "internalType": "bool",
          "name": "",
          "type": "bool"
        }
      ],
      "stateMutability": "nonpayable",
      "type": "function"
    },
    {
      "inputs": [
        {
          "internalType": "address",
          "name": "sender",
          "type": "address"
        },
        {
          "internalType": "address",
          "name": "recipient",
          "type": "address"
        },
        {
          "internalType": "uint256",
          "name": "amount",
          "type": "uint256"
        }
      ],
      "name": "transferFrom",
      "outputs": [
        {
          "internalType": "bool",
          "name": "",
          "type": "bool"
        }
      ],
      "stateMutability": "nonpayable",
      "type": "function"
    },
    {
      "inputs": [
        {
          "internalType": "address",
          "name": "newOwner",
          "type": "address"
        }
      ],
      "name": "transferOwnership",
      "outputs": [],
      "stateMutability": "nonpayable",
      "type": "function"
    },
    {
      "inputs": [
        {
          "internalType": "uint256",
          "name": "amount",
          "type": "uint256"
        }
      ],
      "name": "withdraw",
      "outputs": [
        {
          "internalType": "bool",
          "name": "",
          "type": "bool"
        }
      ],
      "stateMutability": "nonpayable",
      "type": "function"
    }
  ],
  "bytecode": "0x60806040523480156200001157600080fd5b506040518060400160405280600581526020017f546f6b656e0000000000000000000000000000000000000000000000000000008152506040518060400160405280600381526020017f42524c000000000000000000000000000000000000000000000000000000000081525081600390816200008f9190620005e5565b508060049081620000a19190620005e5565b505050620000c4620000b86200012660201b60201c565b6200012e60201b60201c565b620000f5306012600a620000d991906200085c565b6207a120620000e99190620008ad565b620001f460201b60201c565b6040518060600160405280602e815260200162003386602e9139600790816200011f9190620005e5565b50620009e4565b600033905090565b6000600560009054906101000a900473ffffffffffffffffffffffffffffffffffffffff16905081600560006101000a81548173ffffffffffffffffffffffffffffffffffffffff021916908373ffffffffffffffffffffffffffffffffffffffff1602179055508173ffffffffffffffffffffffffffffffffffffffff168173ffffffffffffffffffffffffffffffffffffffff167f8be0079c531659141344cd1fd0a4f28419497f9722a3daafe3b4186f6b6457e060405160405180910390a35050565b600073ffffffffffffffffffffffffffffffffffffffff168273ffffffffffffffffffffffffffffffffffffffff160362000266576040517f08c379a00000000000000000000000000000000000000000000000000000000081526004016200025d9062000959565b60405180910390fd5b6200027a600083836200036160201b60201c565b80600260008282546200028e91906200097b565b92505081905550806000808473ffffffffffffffffffffffffffffffffffffffff1673ffffffffffffffffffffffffffffffffffffffff168152602001908152602001600020600082825401925050819055508173ffffffffffffffffffffffffffffffffffffffff16600073ffffffffffffffffffffffffffffffffffffffff167fddf252ad1be2c89b69c2b068fc378daa952ba7f163c4a11628f55a4df523b3ef83604051620003419190620009c7565b60405180910390a36200035d600083836200036660201b60201c565b5050565b505050565b505050565b600081519050919050565b7f4e487b7100000000000000000000000000000000000000000000000000000000600052604160045260246000fd5b7f4e487b7100000000000000000000000000000000000000000000000000000000600052602260045260246000fd5b60006002820490506001821680620003ed57607f821691505b602082108103620004035762000402620003a5565b5b50919050565b60008190508160005260206000209050919050565b60006020601f8301049050919050565b600082821b905092915050565b6000600883026200046d7fffffffffffffffffffffffffffffffffffffffffffffffffffffffffffffffff826200042e565b6200047986836200042e565b95508019841693508086168417925050509392505050565b6000819050919050565b6000819050919050565b6000620004c6620004c0620004ba8462000491565b6200049b565b62000491565b9050919050565b6000819050919050565b620004e283620004a5565b620004fa620004f182620004cd565b8484546200043b565b825550505050565b600090565b6200051162000502565b6200051e818484620004d7565b505050565b5b8181101562000546576200053a60008262000507565b60018101905062000524565b5050565b601f82111562000595576200055f8162000409565b6200056a846200041e565b810160208510156200057a578190505b6200059262000589856200041e565b83018262000523565b50505b505050565b600082821c905092915050565b6000620005ba600019846008026200059a565b1980831691505092915050565b6000620005d58383620005a7565b9150826002028217905092915050565b620005f0826200036b565b67ffffffffffffffff8111156200060c576200060b62000376565b5b620006188254620003d4565b620006258282856200054a565b600060209050601f8311600181146200065d576000841562000648578287015190505b620006548582620005c7565b865550620006c4565b601f1984166200066d8662000409565b60005b82811015620006975784890151825560018201915060208501945060208101905062000670565b86831015620006b75784890151620006b3601f891682620005a7565b8355505b6001600288020188555050505b505050505050565b7f4e487b7100000000000000000000000000000000000000000000000000000000600052601160045260246000fd5b60008160011c9050919050565b6000808291508390505b60018511156200075a57808604811115620007325762000731620006cc565b5b6001851615620007425780820291505b80810290506200075285620006fb565b945062000712565b94509492505050565b60008262000775576001905062000848565b8162000785576000905062000848565b81600181146200079e5760028114620007a957620007df565b600191505062000848565b60ff841115620007be57620007bd620006cc565b5b8360020a915084821115620007d857620007d7620006cc565b5b5062000848565b5060208310610133831016604e8410600b8410161715620008195782820a905083811115620008135762000812620006cc565b5b62000848565b62000828848484600162000708565b92509050818404811115620008425762000841620006cc565b5b81810290505b9392505050565b600060ff82169050919050565b6000620008698262000491565b915062000876836200084f565b9250620008a57fffffffffffffffffffffffffffffffffffffffffffffffffffffffffffffffff848462000763565b905092915050565b6000620008ba8262000491565b9150620008c78362000491565b9250828202620008d78162000491565b91508282048414831517620008f157620008f0620006cc565b5b5092915050565b600082825260208201905092915050565b7f45524332303a206d696e7420746f20746865207a65726f206164647265737300600082015250565b600062000941601f83620008f8565b91506200094e8262000909565b602082019050919050565b60006020820190508181036000830152620009748162000932565b9050919050565b6000620009888262000491565b9150620009958362000491565b9250828201905080821115620009b057620009af620006cc565b5b92915050565b620009c18162000491565b82525050565b6000602082019050620009de6000830184620009b6565b92915050565b61299280620009f46000396000f3fe608060405234801561001057600080fd5b50600436106101375760003560e01c806370a08231116100b8578063a457c2d71161007c578063a457c2d714610350578063a9059cbb14610380578063c1aef4f2146103b0578063dd62ed3e146103ce578063f2fde38b146103fe578063f806147d1461041a57610137565b806370a08231146102be578063715018a6146102ee57806379cc6790146102f85780638da5cb5b1461031457806395d89b411461033257610137565b8063313ce567116100ff578063313ce56714610208578063395093511461022657806340c10f191461025657806342966c68146102725780634a4bdb301461028e57610137565b806306fdde031461013c578063095ea7b31461015a57806318160ddd1461018a57806323b872dd146101a85780632e1a7d4d146101d8575b600080fd5b610144610436565b6040516101519190611708565b60405180910390f35b610174600480360381019061016f91906117d2565b6104c8565b604051610181919061182d565b60405180910390f35b6101926104e6565b60405161019f9190611857565b60405180910390f35b6101c260048036038101906101bd9190611872565b6104f0565b6040516101cf919061182d565b60405180910390f35b6101f260048036038101906101ed91906118c5565b61075f565b6040516101ff919061182d565b60405180910390f35b6102106107bf565b60405161021d919061190e565b60405180910390f35b610240600480360381019061023b91906117d2565b6107c8565b60405161024d919061182d565b60405180910390f35b610270600480360381019061026b91906117d2565b6107ff565b005b61028c600480360381019061028791906118c5565b610888565b005b6102a860048036038101906102a39190611a5e565b61089c565b6040516102b5919061182d565b60405180910390f35b6102d860048036038101906102d39190611acd565b6109ac565b6040516102e59190611857565b60405180910390f35b6102f66109f4565b005b610312600480360381019061030d91906117d2565b610a08565b005b61031c610a28565b6040516103299190611b09565b60405180910390f35b61033a610a52565b6040516103479190611708565b60405180910390f35b61036a600480360381019061036591906117d2565b610ae4565b604051610377919061182d565b60405180910390f35b61039a600480360381019061039591906117d2565b610b5b565b6040516103a7919061182d565b60405180910390f35b6103b8610b81565b6040516103c59190611708565b60405180910390f35b6103e860048036038101906103e39190611b24565b610c0f565b6040516103f59190611857565b60405180910390f35b61041860048036038101906104139190611acd565b610c96565b005b610434600480360381019061042f9190611b64565b610d19565b005b60606003805461044590611bdc565b80601f016020809104026020016040519081016040528092919081815260200182805461047190611bdc565b80156104be5780601f10610493576101008083540402835291602001916104be565b820191906000526020600020905b8154815290600101906020018083116104a157829003601f168201915b5050505050905090565b60006104dc6104d5610d34565b8484610d3c565b6001905092915050565b6000600254905090565b60006104fa610f05565b81600660008673ffffffffffffffffffffffffffffffffffffffff1673ffffffffffffffffffffffffffffffffffffffff1681526020019081526020016000206000610544610d34565b73ffffffffffffffffffffffffffffffffffffffff1673ffffffffffffffffffffffffffffffffffffffff1681526020019081526020016000205410156105c0576040517f08c379a00000000000000000000000000000000000000000000000000000000081526004016105b790611c7f565b60405180910390fd5b6105cb848484610f83565b81600660008673ffffffffffffffffffffffffffffffffffffffff1673ffffffffffffffffffffffffffffffffffffffff1681526020019081526020016000206000610615610d34565b73ffffffffffffffffffffffffffffffffffffffff1673ffffffffffffffffffffffffffffffffffffffff168152602001908152602001600020600082825461065e9190611cce565b9250508190555061066d610d34565b73ffffffffffffffffffffffffffffffffffffffff168473ffffffffffffffffffffffffffffffffffffffff167f8c5be1e5ebec7d5bd14f71427d1e84f3dd0314c0f7b2291e5b200ac8c7c3b925600660008873ffffffffffffffffffffffffffffffffffffffff1673ffffffffffffffffffffffffffffffffffffffff1681526020019081526020016000206000610704610d34565b73ffffffffffffffffffffffffffffffffffffffff1673ffffffffffffffffffffffffffffffffffffffff1681526020019081526020016000205460405161074c9190611857565b60405180910390a3600190509392505050565b60008161076b336109ac565b10156107ac576040517f08c379a00000000000000000000000000000000000000000000000000000000081526004016107a390611d4e565b60405180910390fd5b6107b633836111f9565b60019050919050565b60006012905090565b6000806107d3610d34565b90506107f48185856107e58589610c0f565b6107ef9190611d6e565b610d3c565b600191505092915050565b610807610f05565b601260ff16600a6108189190611ed5565b620f42406108269190611f20565b8161082f6104e6565b6108399190611d6e565b111561087a576040517f08c379a000000000000000000000000000000000000000000000000000000000815260040161087190611fae565b60405180910390fd5b61088482826113c6565b5050565b610899610893610d34565b826111f9565b50565b6000826108a8336109ac565b10156108e9576040517f08c379a00000000000000000000000000000000000000000000000000000000081526004016108e090611d4e565b60405180910390fd5b6108f38484610b5b565b610932576040517f08c379a00000000000000000000000000000000000000000000000000000000081526004016109299061201a565b60405180910390fd5b60004290508473ffffffffffffffffffffffffffffffffffffffff163373ffffffffffffffffffffffffffffffffffffffff167fef3f1743a5a5c7ca1d67e94acf998909d2c302490f63d97a7a836ce1454c8f068686856040516109989392919061203a565b60405180910390a360019150509392505050565b60008060008373ffffffffffffffffffffffffffffffffffffffff1673ffffffffffffffffffffffffffffffffffffffff168152602001908152602001600020549050919050565b6109fc610f05565b610a06600061151c565b565b610a1a82610a14610d34565b836115e2565b610a2482826111f9565b5050565b6000600560009054906101000a900473ffffffffffffffffffffffffffffffffffffffff16905090565b606060048054610a6190611bdc565b80601f0160208091040260200160405190810160405280929190818152602001828054610a8d90611bdc565b8015610ada5780601f10610aaf57610100808354040283529160200191610ada565b820191906000526020600020905b815481529060010190602001808311610abd57829003601f168201915b5050505050905090565b600080610aef610d34565b90506000610afd8286610c0f565b905083811015610b42576040517f08c379a0000000000000000000000000000000000000000000000000000000008152600401610b39906120ea565b60405180910390fd5b610b4f8286868403610d3c565b60019250505092915050565b6000610b65610f05565b610b77610b70610d34565b8484610f83565b6001905092915050565b60078054610b8e90611bdc565b80601f0160208091040260200160405190810160405280929190818152602001828054610bba90611bdc565b8015610c075780601f10610bdc57610100808354040283529160200191610c07565b820191906000526020600020905b815481529060010190602001808311610bea57829003601f168201915b505050505081565b6000600660008473ffffffffffffffffffffffffffffffffffffffff1673ffffffffffffffffffffffffffffffffffffffff16815260200190815260200160002060008373ffffffffffffffffffffffffffffffffffffffff1673ffffffffffffffffffffffffffffffffffffffff16815260200190815260200160002054905092915050565b610c9e610f05565b600073ffffffffffffffffffffffffffffffffffffffff168173ffffffffffffffffffffffffffffffffffffffff1603610d0d576040517f08c379a0000000000000000000000000000000000000000000000000000000008152600401610d049061217c565b60405180910390fd5b610d168161151c565b50565b610d21610f05565b8060079081610d309190612348565b5050565b600033905090565b600073ffffffffffffffffffffffffffffffffffffffff168373ffffffffffffffffffffffffffffffffffffffff1603610dab576040517f08c379a0000000000000000000000000000000000000000000000000000000008152600401610da29061248c565b60405180910390fd5b600073ffffffffffffffffffffffffffffffffffffffff168273ffffffffffffffffffffffffffffffffffffffff1603610e1a576040517f08c379a0000000000000000000000000000000000000000000000000000000008152600401610e119061251e565b60405180910390fd5b80600660008573ffffffffffffffffffffffffffffffffffffffff1673ffffffffffffffffffffffffffffffffffffffff16815260200190815260200160002060008473ffffffffffffffffffffffffffffffffffffffff1673ffffffffffffffffffffffffffffffffffffffff168152602001908152602001600020819055508173ffffffffffffffffffffffffffffffffffffffff168373ffffffffffffffffffffffffffffffffffffffff167f8c5be1e5ebec7d5bd14f71427d1e84f3dd0314c0f7b2291e5b200ac8c7c3b92583604051610ef89190611857565b60405180910390a3505050565b610f0d610d34565b73ffffffffffffffffffffffffffffffffffffffff16610f2b610a28565b73ffffffffffffffffffffffffffffffffffffffff1614610f81576040517f08c379a0000000000000000000000000000000000000000000000000000000008152600401610f789061258a565b60405180910390fd5b565b600073ffffffffffffffffffffffffffffffffffffffff168373ffffffffffffffffffffffffffffffffffffffff1603610ff2576040517f08c379a0000000000000000000000000000000000000000000000000000000008152600401610fe99061261c565b60405180910390fd5b600073ffffffffffffffffffffffffffffffffffffffff168273ffffffffffffffffffffffffffffffffffffffff1603611061576040517f08c379a0000000000000000000000000000000000000000000000000000000008152600401611058906126ae565b60405180910390fd5b61106c83838361166e565b60008060008573ffffffffffffffffffffffffffffffffffffffff1673ffffffffffffffffffffffffffffffffffffffff168152602001908152602001600020549050818110156110f2576040517f08c379a00000000000000000000000000000000000000000000000000000000081526004016110e990612740565b60405180910390fd5b8181036000808673ffffffffffffffffffffffffffffffffffffffff1673ffffffffffffffffffffffffffffffffffffffff16815260200190815260200160002081905550816000808573ffffffffffffffffffffffffffffffffffffffff1673ffffffffffffffffffffffffffffffffffffffff168152602001908152602001600020600082825401925050819055508273ffffffffffffffffffffffffffffffffffffffff168473ffffffffffffffffffffffffffffffffffffffff167fddf252ad1be2c89b69c2b068fc378daa952ba7f163c4a11628f55a4df523b3ef846040516111e09190611857565b60405180910390a36111f3848484611673565b50505050565b600073ffffffffffffffffffffffffffffffffffffffff168273ffffffffffffffffffffffffffffffffffffffff1603611268576040517f08c379a000000000000000000000000000000000000000000000000000000000815260040161125f906127d2565b60405180910390fd5b6112748260008361166e565b60008060008473ffffffffffffffffffffffffffffffffffffffff1673ffffffffffffffffffffffffffffffffffffffff168152602001908152602001600020549050818110156112fa576040517f08c379a00000000000000000000000000000000000000000000000000000000081526004016112f190612864565b60405180910390fd5b8181036000808573ffffffffffffffffffffffffffffffffffffffff1673ffffffffffffffffffffffffffffffffffffffff1681526020019081526020016000208190555081600260008282540392505081905550600073ffffffffffffffffffffffffffffffffffffffff168373ffffffffffffffffffffffffffffffffffffffff167fddf252ad1be2c89b69c2b068fc378daa952ba7f163c4a11628f55a4df523b3ef846040516113ad9190611857565b60405180910390a36113c183600084611673565b505050565b600073ffffffffffffffffffffffffffffffffffffffff168273ffffffffffffffffffffffffffffffffffffffff1603611435576040517f08c379a000000000000000000000000000000000000000000000000000000000815260040161142c906128d0565b60405180910390fd5b6114416000838361166e565b80600260008282546114539190611d6e565b92505081905550806000808473ffffffffffffffffffffffffffffffffffffffff1673ffffffffffffffffffffffffffffffffffffffff168152602001908152602001600020600082825401925050819055508173ffffffffffffffffffffffffffffffffffffffff16600073ffffffffffffffffffffffffffffffffffffffff167fddf252ad1be2c89b69c2b068fc378daa952ba7f163c4a11628f55a4df523b3ef836040516115049190611857565b60405180910390a361151860008383611673565b5050565b6000600560009054906101000a900473ffffffffffffffffffffffffffffffffffffffff16905081600560006101000a81548173ffffffffffffffffffffffffffffffffffffffff021916908373ffffffffffffffffffffffffffffffffffffffff1602179055508173ffffffffffffffffffffffffffffffffffffffff168173ffffffffffffffffffffffffffffffffffffffff167f8be0079c531659141344cd1fd0a4f28419497f9722a3daafe3b4186f6b6457e060405160405180910390a35050565b60006115ee8484610c0f565b90507fffffffffffffffffffffffffffffffffffffffffffffffffffffffffffffffff8114611668578181101561165a576040517f08c379a00000000000000000000000000000000000000000000000000000000081526004016116519061293c565b60405180910390fd5b6116678484848403610d3c565b5b50505050565b505050565b505050565b600081519050919050565b600082825260208201905092915050565b60005b838110156116b2578082015181840152602081019050611697565b60008484015250505050565b6000601f19601f8301169050919050565b60006116da82611678565b6116e48185611683565b93506116f4818560208601611694565b6116fd816116be565b840191505092915050565b6000602082019050818103600083015261172281846116cf565b905092915050565b6000604051905090565b600080fd5b600080fd5b600073ffffffffffffffffffffffffffffffffffffffff82169050919050565b60006117698261173e565b9050919050565b6117798161175e565b811461178457600080fd5b50565b60008135905061179681611770565b92915050565b6000819050919050565b6117af8161179c565b81146117ba57600080fd5b50565b6000813590506117cc816117a6565b92915050565b600080604083850312156117e9576117e8611734565b5b60006117f785828601611787565b9250506020611808858286016117bd565b9150509250929050565b60008115159050919050565b61182781611812565b82525050565b6000602082019050611842600083018461181e565b92915050565b6118518161179c565b82525050565b600060208201905061186c6000830184611848565b92915050565b60008060006060848603121561188b5761188a611734565b5b600061189986828701611787565b93505060206118aa86828701611787565b92505060406118bb868287016117bd565b9150509250925092565b6000602082840312156118db576118da611734565b5b60006118e9848285016117bd565b91505092915050565b600060ff82169050919050565b611908816118f2565b82525050565b600060208201905061192360008301846118ff565b92915050565b600080fd5b600080fd5b7f4e487b7100000000000000000000000000000000000000000000000000000000600052604160045260246000fd5b61196b826116be565b810181811067ffffffffffffffff8211171561198a57611989611933565b5b80604052505050565b600061199d61172a565b90506119a98282611962565b919050565b600067ffffffffffffffff8211156119c9576119c8611933565b5b6119d2826116be565b9050602081019050919050565b82818337600083830152505050565b6000611a016119fc846119ae565b611993565b905082815260208101848484011115611a1d57611a1c61192e565b5b611a288482856119df565b509392505050565b600082601f830112611a4557611a44611929565b5b8135611a558482602086016119ee565b91505092915050565b600080600060608486031215611a7757611a76611734565b5b6000611a8586828701611787565b9350506020611a96868287016117bd565b925050604084013567ffffffffffffffff811115611ab757611ab6611739565b5b611ac386828701611a30565b9150509250925092565b600060208284031215611ae357611ae2611734565b5b6000611af184828501611787565b91505092915050565b611b038161175e565b82525050565b6000602082019050611b1e6000830184611afa565b92915050565b60008060408385031215611b3b57611b3a611734565b5b6000611b4985828601611787565b9250506020611b5a85828601611787565b9150509250929050565b600060208284031215611b7a57611b79611734565b5b600082013567ffffffffffffffff811115611b9857611b97611739565b5b611ba484828501611a30565b91505092915050565b7f4e487b7100000000000000000000000000000000000000000000000000000000600052602260045260246000fd5b60006002820490506001821680611bf457607f821691505b602082108103611c0757611c06611bad565b5b50919050565b7f45524332303a207472616e7366657220616d6f756e742065786365656473206160008201527f6c6c6f77616e6365000000000000000000000000000000000000000000000000602082015250565b6000611c69602883611683565b9150611c7482611c0d565b604082019050919050565b60006020820190508181036000830152611c9881611c5c565b9050919050565b7f4e487b7100000000000000000000000000000000000000000000000000000000600052601160045260246000fd5b6000611cd98261179c565b9150611ce48361179c565b9250828203905081811115611cfc57611cfb611c9f565b5b92915050565b7f496e73756666696369656e742062616c616e6365000000000000000000000000600082015250565b6000611d38601483611683565b9150611d4382611d02565b602082019050919050565b60006020820190508181036000830152611d6781611d2b565b9050919050565b6000611d798261179c565b9150611d848361179c565b9250828201905080821115611d9c57611d9b611c9f565b5b92915050565b60008160011c9050919050565b6000808291508390505b6001851115611df957808604811115611dd557611dd4611c9f565b5b6001851615611de45780820291505b8081029050611df285611da2565b9450611db9565b94509492505050565b600082611e125760019050611ece565b81611e205760009050611ece565b8160018114611e365760028114611e4057611e6f565b6001915050611ece565b60ff841115611e5257611e51611c9f565b5b8360020a915084821115611e6957611e68611c9f565b5b50611ece565b5060208310610133831016604e8410600b8410161715611ea45782820a905083811115611e9f57611e9e611c9f565b5b611ece565b611eb18484846001611daf565b92509050818404811115611ec857611ec7611c9f565b5b81810290505b9392505050565b6000611ee08261179c565b9150611eeb8361179c565b9250611f187fffffffffffffffffffffffffffffffffffffffffffffffffffffffffffffffff8484611e02565b905092915050565b6000611f2b8261179c565b9150611f368361179c565b9250828202611f448161179c565b91508282048414831517611f5b57611f5a611c9f565b5b5092915050565b7f546f74616c20737570706c79206c696d69742065786365656465640000000000600082015250565b6000611f98601b83611683565b9150611fa382611f62565b602082019050919050565b60006020820190508181036000830152611fc781611f8b565b9050919050565b7f5472616e73666572206661696c65640000000000000000000000000000000000600082015250565b6000612004600f83611683565b915061200f82611fce565b602082019050919050565b6000602082019050818103600083015261203381611ff7565b9050919050565b600060608201905061204f6000830186611848565b818103602083015261206181856116cf565b90506120706040830184611848565b949350505050565b7f45524332303a2064656372656173656420616c6c6f77616e63652062656c6f7760008201527f207a65726f000000000000000000000000000000000000000000000000000000602082015250565b60006120d4602583611683565b91506120df82612078565b604082019050919050565b60006020820190508181036000830152612103816120c7565b9050919050565b7f4f776e61626c653a206e6577206f776e657220697320746865207a65726f206160008201527f6464726573730000000000000000000000000000000000000000000000000000602082015250565b6000612166602683611683565b91506121718261210a565b604082019050919050565b6000602082019050818103600083015261219581612159565b9050919050565b60008190508160005260206000209050919050565b60006020601f8301049050919050565b600082821b905092915050565b6000600883026121fe7fffffffffffffffffffffffffffffffffffffffffffffffffffffffffffffffff826121c1565b61220886836121c1565b95508019841693508086168417925050509392505050565b6000819050919050565b600061224561224061223b8461179c565b612220565b61179c565b9050919050565b6000819050919050565b61225f8361222a565b61227361226b8261224c565b8484546121ce565b825550505050565b600090565b61228861227b565b612293818484612256565b505050565b5b818110156122b7576122ac600082612280565b600181019050612299565b5050565b601f8211156122fc576122cd8161219c565b6122d6846121b1565b810160208510156122e5578190505b6122f96122f1856121b1565b830182612298565b50505b505050565b600082821c905092915050565b600061231f60001984600802612301565b1980831691505092915050565b6000612338838361230e565b9150826002028217905092915050565b61235182611678565b67ffffffffffffffff81111561236a57612369611933565b5b6123748254611bdc565b61237f8282856122bb565b600060209050601f8311600181146123b257600084156123a0578287015190505b6123aa858261232c565b865550612412565b601f1984166123c08661219c565b60005b828110156123e8578489015182556001820191506020850194506020810190506123c3565b868310156124055784890151612401601f89168261230e565b8355505b6001600288020188555050505b505050505050565b7f45524332303a20617070726f76652066726f6d20746865207a65726f2061646460008201527f7265737300000000000000000000000000000000000000000000000000000000602082015250565b6000612476602483611683565b91506124818261241a565b604082019050919050565b600060208201905081810360008301526124a581612469565b9050919050565b7f45524332303a20617070726f766520746f20746865207a65726f20616464726560008201527f7373000000000000000000000000000000000000000000000000000000000000602082015250565b6000612508602283611683565b9150612513826124ac565b604082019050919050565b60006020820190508181036000830152612537816124fb565b9050919050565b7f4f776e61626c653a2063616c6c6572206973206e6f7420746865206f776e6572600082015250565b6000612574602083611683565b915061257f8261253e565b602082019050919050565b600060208201905081810360008301526125a381612567565b9050919050565b7f45524332303a207472616e736665722066726f6d20746865207a65726f20616460008201527f6472657373000000000000000000000000000000000000000000000000000000602082015250565b6000612606602583611683565b9150612611826125aa565b604082019050919050565b60006020820190508181036000830152612635816125f9565b9050919050565b7f45524332303a207472616e7366657220746f20746865207a65726f206164647260008201527f6573730000000000000000000000000000000000000000000000000000000000602082015250565b6000612698602383611683565b91506126a38261263c565b604082019050919050565b600060208201905081810360008301526126c78161268b565b9050919050565b7f45524332303a207472616e7366657220616d6f756e742065786365656473206260008201527f616c616e63650000000000000000000000000000000000000000000000000000602082015250565b600061272a602683611683565b9150612735826126ce565b604082019050919050565b600060208201905081810360008301526127598161271d565b9050919050565b7f45524332303a206275726e2066726f6d20746865207a65726f2061646472657360008201527f7300000000000000000000000000000000000000000000000000000000000000602082015250565b60006127bc602183611683565b91506127c782612760565b604082019050919050565b600060208201905081810360008301526127eb816127af565b9050919050565b7f45524332303a206275726e20616d6f756e7420657863656564732062616c616e60008201527f6365000000000000000000000000000000000000000000000000000000000000602082015250565b600061284e602283611683565b9150612859826127f2565b604082019050919050565b6000602082019050818103600083015261287d81612841565b9050919050565b7f45524332303a206d696e7420746f20746865207a65726f206164647265737300600082015250565b60006128ba601f83611683565b91506128c582612884565b602082019050919050565b600060208201905081810360008301526128e9816128ad565b9050919050565b7f45524332303a20696e73756666696369656e7420616c6c6f77616e6365000000600082015250565b6000612926601d83611683565b9150612931826128f0565b602082019050919050565b6000602082019050818103600083015261295581612919565b905091905056fea26469706673582212209c606d9d3fa4d5b87097ed7dece80a766e2d36c91050d18db64f9759ebb4ebbb64736f6c6343000812003368747470733a2f2f6578616d706c652e636f6d2f666963746974696f75735f746f6b656e5f696d6167652e706e67",
  "linkReferences": {},
  "deployedLinkReferences": {}
}